:1000000055C0000063C0000061C0000056C200007F
:1000100079C200009CC20000BFC2000057C00000AF
:1000200055C0000053C0000051C0000012C10000C4
:100030006FC50000D6C2000049C00000FBC200002E
:1000400022C3000049C3000041C000006EC300008D
:1000500095C30000BCC3000039C0000037C00000D9
:1000600035C0000033C0000031C000002FC00000C8
:100070002DC000002BC0000029C0000050C00000AF
:1000800083C00000B6C0000021C000001FC00000F7
:10009000C7C30000EEC3000015C400003CC400004C
:1000A00015C0000013C0000011C0000011241FBEC5
:1000B000CFEFCDBFD7E2DEBF20E2A0E0B0E201C0CB
:1000C0001D92AF32B207E1F74FD486C599CF8FEFBB
:1000D000809370008093710080937200809373000E
:1000E0008093740080937500809376009FB7F89496
:1000F000809150008260809350009FBF809151009A
:1001000081FFFCCF61E080E490E060D59FB7F89478
:10011000809150008E7F809350009FBF08951F9262
:100120000F920FB60F9211242F933F934F935F932B
:100130006F937F938F939F93AF93BF93EF93FF93AF
:10014000E0910020F0910120309769F080918703C1
:1001500084FF03C040E050E002C040E850E060E0AF
:1001600080E893E00995FF91EF91BF91AF919F9146
:100170008F917F916F915F914F913F912F910F9050
:100180000FBE0F901F9018951F920F920FB60F92EF
:1001900011242F933F934F935F936F937F938F938C
:1001A0009F93AF93BF93EF93FF93E0910020F09163
:1001B0000120309769F08091870385FF03C040E0FC
:1001C00050E002C040E850E061E080E893E009952B
:1001D000FF91EF91BF91AF919F918F917F916F911F
:1001E0005F914F913F912F910F900FBE0F901F90F5
:1001F00018951F920F920FB60F9211242F933F93D1
:100200004F935F936F937F938F939F93AF93BF931E
:10021000EF93FF93E0910020F0910120309741F09F
:1002200040918703407C50E060E080E893E00995CE
:10023000FF91EF91BF91AF919F918F917F916F91BE
:100240005F914F913F912F910F900FBE0F901F9094
:1002500018951F920F920FB60F9211242F933F9370
:100260004F935F936F937F938F939F93AF93BF93BE
:10027000CF93DF93EF93FF93E0910220F09103205F
:10028000848183FF07C08860848383E0838386EF53
:100290009FEF84C0982F947129F083E083838FEFC0
:1002A0009FEF7CC086FF41C0A0910420B091052043
:1002B000809106209091072014962D913C911597DE
:1002C0008217930764F49C012F5F3F4F2093062011
:1002D00030930720A80FB91F11968C9122C08091EE
:1002E00008209091092018962D913C91199782171A
:1002F0009307C8F420910A20222321F0868181608F
:10030000868350C016962D913C911797AC014F5F94
:100310005F4F4093082050930920D901A80FB91FBF
:100320008C9187833FC083E02CC087FF35C0A091AC
:100330000420B09105208091082090910920189602
:100340002D913C9119978217930708F516966D9198
:100350007C9117979C012F5F3F4F2093082030938B
:1003600009204781EB01C80FD91F488318968D914A
:100370009C9119972817390718F482E0838312C0DB
:1003800087E0838310920C2010920D200BC083E035
:10039000838389EF9FEF02C08BEF9FEF80930C2048
:1003A00090930D20FF91EF91DF91CF91BF91AF918D
:1003B0009F918F917F916F915F914F913F912F917D
:1003C0000F900FBE0F901F901895CF93DF93FC01F5
:1003D000FF27719624E0EE0FFF1F2A95E1F7813089
:1003E000910529F42091000124FD45C007C0833008
:1003F000910521F42091000125FD3DC020910401CB
:1004000060910301DC01149641E050E0EA01082EFE
:1004100001C0CC0F0A94EAF70A2E01C0440F0A94D7
:10042000EAF74C2B642370E0EB010A2E02C0D5954D
:10043000C7950A94E2F7C0FD21C0082E02C0759549
:1004400067950A94E2F760FD1CC04223242F30E038
:10045000A90102C055954795AA95E2F740FD14C041
:10046000082E02C0359527950A94E2F720FD0FC0AB
:1004700020E030E00EC026E030E00BC025E030E0A8
:1004800008C024E030E005C023E030E002C022E0F4
:1004900030E0418140634183FC01EE0FFF1FE95DC5
:1004A000FF4D0190F081E02D309721F0C901DF91DF
:1004B000CF910994DF91CF9108951F920F920FB6BB
:1004C0000F9211242F933F934F935F936F937F93DA
:1004D0008F939F93AF93BF93EF93FF9380E090E050
:1004E00074DFFF91EF91BF91AF919F918F917F91B9
:1004F0006F915F914F913F912F910F900FBE0F9091
:100500001F9018951F920F920FB60F9211242F93E0
:100510003F934F935F936F937F938F939F93AF938B
:10052000BF93EF93FF9381E090E04FDFFF91EF9156
:10053000BF91AF919F918F917F916F915F914F91FB
:100540003F912F910F900FBE0F901F9018951F9203
:100550000F920FB60F9211242F933F934F935F93F7
:100560006F937F938F939F93AF93BF93EF93FF937B
:1005700082E090E02ADFFF91EF91BF91AF919F91D0
:100580008F917F916F915F914F913F912F910F903C
:100590000FBE0F901F9018951F920F920FB60F92DB
:1005A00011242F933F934F935F936F937F938F9378
:1005B0009F93AF93BF93EF93FF9383E090E005DFAA
:1005C000FF91EF91BF91AF919F918F917F916F912B
:1005D0005F914F913F912F910F900FBE0F901F9001
:1005E00018951F920F920FB60F9211242F933F93DD
:1005F0004F935F936F937F938F939F93AF93BF932B
:10060000EF93FF93E0912220F0912320309709F09F
:100610000995FF91EF91BF91AF919F918F917F913C
:100620006F915F914F913F912F910F900FBE0F905F
:100630001F9018951F920F920FB60F9211242F93AF
:100640003F934F935F936F937F938F939F93AF935A
:10065000BF93EF93FF93E0912020F09121203097FA
:1006600009F00995FF91EF91BF91AF919F918F9103
:100670007F916F915F914F913F912F910F900FBE9E
:100680000F901F9018951F920F920FB60F92112482
:100690002F933F934F935F936F937F938F939F938A
:1006A000AF93BF93EF93FF93E0911E20F0911F2033
:1006B000309709F00995FF91EF91BF91AF919F910C
:1006C0008F917F916F915F914F913F912F910F90FB
:1006D0000FBE0F901F9018951F920F920FB60F929A
:1006E00011242F933F934F935F936F937F938F9337
:1006F0009F93AF93BF93EF93FF93E0911C20F091F2
:100700001D20309709F00995FF91EF91BF91AF91AE
:100710009F918F917F916F915F914F913F912F9119
:100720000F900FBE0F901F9018951F920F920FB64B
:100730000F9211242F933F934F935F936F937F9367
:100740008F939F93AF93BF93EF93FF93E0911A2002
:10075000F0911B20309709F00995FF91EF91BF911F
:10076000AF919F918F917F916F915F914F913F9149
:100770002F910F900FBE0F901F9018951F920F9200
:100780000FB60F9211242F933F934F935F936F9364
:100790007F938F939F93AF93BF93EF93FF93E091DA
:1007A0001820F0911920309709F00995FF91EF91E9
:1007B000BF91AF919F918F917F916F915F914F9179
:1007C0003F912F910F900FBE0F901F9018951F9281
:1007D0000F920FB60F9211242F933F934F935F9375
:1007E0006F937F938F939F93AF93BF93EF93FF93F9
:1007F000E0911620F0911720309709F00995FF91AC
:10080000EF91BF91AF919F918F917F916F915F9188
:100810004F913F912F910F900FBE0F901F90189501
:100820001F920F920FB60F9211242F933F934F9365
:100830005F936F937F938F939F93AF93BF93EF9348
:10084000FF93E0911420F0911520309709F009955D
:10085000FF91EF91BF91AF919F918F917F916F9198
:100860005F914F913F912F910F900FBE0F901F906E
:1008700018951F920F920FB60F9211242F933F934A
:100880004F935F936F937F938F939F93AF93BF9398
:10089000EF93FF93E0911220F0911320309709F02D
:1008A0000995FF91EF91BF91AF919F918F917F91AA
:1008B0006F915F914F913F912F910F900FBE0F90CD
:1008C0001F9018951F920F920FB60F9211242F931D
:1008D0003F934F935F936F937F938F939F93AF93C8
:1008E000BF93EF93FF93E0911020F0911120309788
:1008F00009F00995FF91EF91BF91AF919F918F9171
:100900007F916F915F914F913F912F910F900FBE0B
:100910000F901F9018951F920F920FB60F921124EF
:100920002F933F934F935F936F937F938F939F93F7
:10093000AF93BF93EF93FF93E0910E20F0910F20C0
:10094000309709F00995FF91EF91BF91AF919F9179
:100950008F917F916F915F914F913F912F910F9068
:100960000FBE0F901F901895809150008660809365
:1009700050008091510082FFFCCF8091510081FF97
:10098000FCCFFF24F394F092600088ED84BFF092D6
:100990004000809150008E7F80935000C4E0C0934F
:1009A000010610E810930106D0E1D093410684E6D9
:1009B000809361061093620680EEE82EE092410675
:1009C000D0934506C093060600E400936506C093E5
:1009D00065062FEF37EE83E0215030408040E1F78D
:1009E00000C0000097E0D92ED092A20070DB78946E
:1009F000D092A2007894809174008D7F80937400CF
:100A000093E090934109C093440922E330E020939E
:100A100066093093670929E130E020936A09309331
:100A20006B09F092400980E28093610600934506CD
:100A300000936506C093650680934506C09305063E
:100A40002FEF33ED80E3215030408040E1F700C0CC
:100A5000000010934506D0934606E092460680912A
:100A600070008D7F809370008FE68093800180916D
:100A70008101846C80938101809173008E7F8093CB
:100A800073002FE731E020932808309329082FEFD7
:100A90003FE3209326083093270880910608816061
:100AA00080930608809100088560809300088091FB
:100AB00073008D7F809373008091440882608093DF
:100AC00044082FEF3FEF209366083093670880EAD1
:100AD000809343088091430889608093430828E00D
:100AE00020934008809173008F7E80937300109252
:100AF0004E062093410683E38093C6081092C708F0
:100B00001092C2089093C40888E18093C308FFCF75
:100B10001F920F920FB60F9211242F938F939F93D2
:100B200080910C08816080930C08809160089091FE
:100B30006108809324209093252080912420909117
:100B400025208031944AA0F4809124209091252082
:100B50008137944968F080E28093620680E4809354
:100B6000660684E08093660680E8809345060CC0A4
:100B700080E28093610680E48093650684E0809340
:100B8000650680E88093460680E88093070680E249
:100B9000809347068FEF97EA21E6815090402040EE
:100BA000E1F700C00000809126208E3110F01092F5
:100BB0002620809126208F5F809326209F918F9101
:100BC0002F910F900FBE0F901F9018951BBEFC0128
:0C0BD00028ED24BF60830895F894FFCF47
:00000001FF
